{
  "_format": "hh-sol-artifact-1",
  "contractName": "Decentratwitter",
  "sourceName": "contracts/Decentratwitter.sol",
  "abi": [
    {
      "inputs": [],
      "stateMutability": "nonpayable",
      "type": "constructor"
    },
    {
      "anonymous": false,
      "inputs": [
        {
          "indexed": true,
          "internalType": "address",
          "name": "owner",
          "type": "address"
        },
        {
          "indexed": true,
          "internalType": "address",
          "name": "approved",
          "type": "address"
        },
        {
          "indexed": true,
          "internalType": "uint256",
          "name": "tokenId",
          "type": "uint256"
        }
      ],
      "name": "Approval",
      "type": "event"
    },
    {
      "anonymous": false,
      "inputs": [
        {
          "indexed": true,
          "internalType": "address",
          "name": "owner",
          "type": "address"
        },
        {
          "indexed": true,
          "internalType": "address",
          "name": "operator",
          "type": "address"
        },
        {
          "indexed": false,
          "internalType": "bool",
          "name": "approved",
          "type": "bool"
        }
      ],
      "name": "ApprovalForAll",
      "type": "event"
    },
    {
      "anonymous": false,
      "inputs": [
        {
          "indexed": false,
          "internalType": "uint256",
          "name": "id",
          "type": "uint256"
        },
        {
          "indexed": false,
          "internalType": "string",
          "name": "hash",
          "type": "string"
        },
        {
          "indexed": false,
          "internalType": "uint256",
          "name": "tipAmount",
          "type": "uint256"
        },
        {
          "indexed": false,
          "internalType": "address payable",
          "name": "author",
          "type": "address"
        }
      ],
      "name": "PostCreated",
      "type": "event"
    },
    {
      "anonymous": false,
      "inputs": [
        {
          "indexed": false,
          "internalType": "uint256",
          "name": "id",
          "type": "uint256"
        },
        {
          "indexed": false,
          "internalType": "string",
          "name": "hash",
          "type": "string"
        },
        {
          "indexed": false,
          "internalType": "uint256",
          "name": "tipAmount",
          "type": "uint256"
        },
        {
          "indexed": false,
          "internalType": "address payable",
          "name": "author",
          "type": "address"
        }
      ],
      "name": "PostTipped",
      "type": "event"
    },
    {
      "anonymous": false,
      "inputs": [
        {
          "indexed": true,
          "internalType": "address",
          "name": "from",
          "type": "address"
        },
        {
          "indexed": true,
          "internalType": "address",
          "name": "to",
          "type": "address"
        },
        {
          "indexed": true,
          "internalType": "uint256",
          "name": "tokenId",
          "type": "uint256"
        }
      ],
      "name": "Transfer",
      "type": "event"
    },
    {
      "inputs": [
        {
          "internalType": "address",
          "name": "to",
          "type": "address"
        },
        {
          "internalType": "uint256",
          "name": "tokenId",
          "type": "uint256"
        }
      ],
      "name": "approve",
      "outputs": [],
      "stateMutability": "nonpayable",
      "type": "function"
    },
    {
      "inputs": [
        {
          "internalType": "address",
          "name": "owner",
          "type": "address"
        }
      ],
      "name": "balanceOf",
      "outputs": [
        {
          "internalType": "uint256",
          "name": "",
          "type": "uint256"
        }
      ],
      "stateMutability": "view",
      "type": "function"
    },
    {
      "inputs": [
        {
          "internalType": "uint256",
          "name": "tokenId",
          "type": "uint256"
        }
      ],
      "name": "getApproved",
      "outputs": [
        {
          "internalType": "address",
          "name": "",
          "type": "address"
        }
      ],
      "stateMutability": "view",
      "type": "function"
    },
    {
      "inputs": [
        {
          "internalType": "address",
          "name": "owner",
          "type": "address"
        },
        {
          "internalType": "address",
          "name": "operator",
          "type": "address"
        }
      ],
      "name": "isApprovedForAll",
      "outputs": [
        {
          "internalType": "bool",
          "name": "",
          "type": "bool"
        }
      ],
      "stateMutability": "view",
      "type": "function"
    },
    {
      "inputs": [
        {
          "internalType": "string",
          "name": "_tokenURI",
          "type": "string"
        }
      ],
      "name": "mint",
      "outputs": [
        {
          "internalType": "uint256",
          "name": "",
          "type": "uint256"
        }
      ],
      "stateMutability": "nonpayable",
      "type": "function"
    },
    {
      "inputs": [],
      "name": "name",
      "outputs": [
        {
          "internalType": "string",
          "name": "",
          "type": "string"
        }
      ],
      "stateMutability": "view",
      "type": "function"
    },
    {
      "inputs": [
        {
          "internalType": "uint256",
          "name": "tokenId",
          "type": "uint256"
        }
      ],
      "name": "ownerOf",
      "outputs": [
        {
          "internalType": "address",
          "name": "",
          "type": "address"
        }
      ],
      "stateMutability": "view",
      "type": "function"
    },
    {
      "inputs": [],
      "name": "postCount",
      "outputs": [
        {
          "internalType": "uint256",
          "name": "",
          "type": "uint256"
        }
      ],
      "stateMutability": "view",
      "type": "function"
    },
    {
      "inputs": [
        {
          "internalType": "uint256",
          "name": "",
          "type": "uint256"
        }
      ],
      "name": "posts",
      "outputs": [
        {
          "internalType": "uint256",
          "name": "id",
          "type": "uint256"
        },
        {
          "internalType": "string",
          "name": "hash",
          "type": "string"
        },
        {
          "internalType": "uint256",
          "name": "tipAmount",
          "type": "uint256"
        },
        {
          "internalType": "address payable",
          "name": "author",
          "type": "address"
        }
      ],
      "stateMutability": "view",
      "type": "function"
    },
    {
      "inputs": [
        {
          "internalType": "address",
          "name": "",
          "type": "address"
        }
      ],
      "name": "profiles",
      "outputs": [
        {
          "internalType": "uint256",
          "name": "",
          "type": "uint256"
        }
      ],
      "stateMutability": "view",
      "type": "function"
    },
    {
      "inputs": [
        {
          "internalType": "address",
          "name": "from",
          "type": "address"
        },
        {
          "internalType": "address",
          "name": "to",
          "type": "address"
        },
        {
          "internalType": "uint256",
          "name": "tokenId",
          "type": "uint256"
        }
      ],
      "name": "safeTransferFrom",
      "outputs": [],
      "stateMutability": "nonpayable",
      "type": "function"
    },
    {
      "inputs": [
        {
          "internalType": "address",
          "name": "from",
          "type": "address"
        },
        {
          "internalType": "address",
          "name": "to",
          "type": "address"
        },
        {
          "internalType": "uint256",
          "name": "tokenId",
          "type": "uint256"
        },
        {
          "internalType": "bytes",
          "name": "_data",
          "type": "bytes"
        }
      ],
      "name": "safeTransferFrom",
      "outputs": [],
      "stateMutability": "nonpayable",
      "type": "function"
    },
    {
      "inputs": [
        {
          "internalType": "address",
          "name": "operator",
          "type": "address"
        },
        {
          "internalType": "bool",
          "name": "approved",
          "type": "bool"
        }
      ],
      "name": "setApprovalForAll",
      "outputs": [],
      "stateMutability": "nonpayable",
      "type": "function"
    },
    {
      "inputs": [
        {
          "internalType": "uint256",
          "name": "_id",
          "type": "uint256"
        }
      ],
      "name": "setProfile",
      "outputs": [],
      "stateMutability": "nonpayable",
      "type": "function"
    },
    {
      "inputs": [
        {
          "internalType": "bytes4",
          "name": "interfaceId",
          "type": "bytes4"
        }
      ],
      "name": "supportsInterface",
      "outputs": [
        {
          "internalType": "bool",
          "name": "",
          "type": "bool"
        }
      ],
      "stateMutability": "view",
      "type": "function"
    },
    {
      "inputs": [],
      "name": "symbol",
      "outputs": [
        {
          "internalType": "string",
          "name": "",
          "type": "string"
        }
      ],
      "stateMutability": "view",
      "type": "function"
    },
    {
      "inputs": [
        {
          "internalType": "uint256",
          "name": "_id",
          "type": "uint256"
        }
      ],
      "name": "tipPostOwner",
      "outputs": [],
      "stateMutability": "payable",
      "type": "function"
    },
    {
      "inputs": [],
      "name": "tokenCount",
      "outputs": [
        {
          "internalType": "uint256",
          "name": "",
          "type": "uint256"
        }
      ],
      "stateMutability": "view",
      "type": "function"
    },
    {
      "inputs": [
        {
          "internalType": "uint256",
          "name": "tokenId",
          "type": "uint256"
        }
      ],
      "name": "tokenURI",
      "outputs": [
        {
          "internalType": "string",
          "name": "",
          "type": "string"
        }
      ],
      "stateMutability": "view",
      "type": "function"
    },
    {
      "inputs": [
        {
          "internalType": "address",
          "name": "from",
          "type": "address"
        },
        {
          "internalType": "address",
          "name": "to",
          "type": "address"
        },
        {
          "internalType": "uint256",
          "name": "tokenId",
          "type": "uint256"
        }
      ],
      "name": "transferFrom",
      "outputs": [],
      "stateMutability": "nonpayable",
      "type": "function"
    },
    {
      "inputs": [
        {
          "internalType": "string",
          "name": "_postHash",
          "type": "string"
        }
      ],
      "name": "uploadPost",
      "outputs": [],
      "stateMutability": "nonpayable",
      "type": "function"
    }
  ],
  "bytecode": "0x60806040523480156200001157600080fd5b506040518060400160405280600f81526020017f446563656e7472617477697474657200000000000000000000000000000000008152506040518060400160405280600481526020017f4441505000000000000000000000000000000000000000000000000000000000815250816000908051906020019062000096929190620000b8565b508060019080519060200190620000af929190620000b8565b505050620001cd565b828054620000c69062000168565b90600052602060002090601f016020900481019282620000ea576000855562000136565b82601f106200010557805160ff191683800117855562000136565b8280016001018555821562000136579182015b828111156200013557825182559160200191906001019062000118565b5b50905062000145919062000149565b5090565b5b80821115620001645760008160009055506001016200014a565b5090565b600060028204905060018216806200018157607f821691505b602082108114156200019857620001976200019e565b5b50919050565b7f4e487b7100000000000000000000000000000000000000000000000000000000600052602260045260246000fd5b61378780620001dd6000396000f3fe60806040526004361061012a5760003560e01c806385d3cb37116100ab578063bbe156271161006f578063bbe1562714610405578063bdd05adb14610442578063c87b56dd1461046b578063d6313c06146104a8578063d85d3d27146104c4578063e985e9c5146105015761012a565b806385d3cb371461033457806395d89b411461035d5780639f181b5e14610388578063a22cb465146103b3578063b88d4fde146103dc5761012a565b806317906c2e116100f257806317906c2e1461023d57806323b872dd1461026857806342842e0e146102915780636352211e146102ba57806370a08231146102f75761012a565b806301ffc9a71461012f57806306fdde031461016c578063081812fc14610197578063095ea7b3146101d45780630b1e7f83146101fd575b600080fd5b34801561013b57600080fd5b506101566004803603810190610151919061251d565b61053e565b6040516101639190612a0e565b60405180910390f35b34801561017857600080fd5b50610181610620565b60405161018e9190612a29565b60405180910390f35b3480156101a357600080fd5b506101be60048036038101906101b991906125b0565b6106b2565b6040516101cb91906129a7565b60405180910390f35b3480156101e057600080fd5b506101fb60048036038101906101f691906124e1565b610737565b005b34801561020957600080fd5b50610224600480360381019061021f91906125b0565b61084f565b6040516102349493929190612d32565b60405180910390f35b34801561024957600080fd5b50610252610927565b60405161025f9190612ccb565b60405180910390f35b34801561027457600080fd5b5061028f600480360381019061028a91906123db565b61092d565b005b34801561029d57600080fd5b506102b860048036038101906102b391906123db565b61098d565b005b3480156102c657600080fd5b506102e160048036038101906102dc91906125b0565b6109ad565b6040516102ee91906129a7565b60405180910390f35b34801561030357600080fd5b5061031e60048036038101906103199190612376565b610a5f565b60405161032b9190612ccb565b60405180910390f35b34801561034057600080fd5b5061035b600480360381019061035691906125b0565b610b17565b005b34801561036957600080fd5b50610372610bd4565b60405161037f9190612a29565b60405180910390f35b34801561039457600080fd5b5061039d610c66565b6040516103aa9190612ccb565b60405180910390f35b3480156103bf57600080fd5b506103da60048036038101906103d591906124a5565b610c6c565b005b3480156103e857600080fd5b5061040360048036038101906103fe919061242a565b610c82565b005b34801561041157600080fd5b5061042c60048036038101906104279190612376565b610ce4565b6040516104399190612ccb565b60405180910390f35b34801561044e57600080fd5b506104696004803603810190610464919061256f565b610cfc565b005b34801561047757600080fd5b50610492600480360381019061048d91906125b0565b610eb0565b60405161049f9190612a29565b60405180910390f35b6104c260048036038101906104bd91906125b0565b611002565b005b3480156104d057600080fd5b506104eb60048036038101906104e6919061256f565b611324565b6040516104f89190612ccb565b60405180910390f35b34801561050d57600080fd5b506105286004803603810190610523919061239f565b61136b565b6040516105359190612a0e565b60405180910390f35b60007f80ac58cd000000000000000000000000000000000000000000000000000000007bffffffffffffffffffffffffffffffffffffffffffffffffffffffff1916827bffffffffffffffffffffffffffffffffffffffffffffffffffffffff1916148061060957507f5b5e139f000000000000000000000000000000000000000000000000000000007bffffffffffffffffffffffffffffffffffffffffffffffffffffffff1916827bffffffffffffffffffffffffffffffffffffffffffffffffffffffff1916145b806106195750610618826113ff565b5b9050919050565b60606000805461062f90612fdd565b80601f016020809104026020016040519081016040528092919081815260200182805461065b90612fdd565b80156106a85780601f1061067d576101008083540402835291602001916106a8565b820191906000526020600020905b81548152906001019060200180831161068b57829003601f168201915b5050505050905090565b60006106bd82611469565b6106fc576040517f08c379a00000000000000000000000000000000000000000000000000000000081526004016106f390612c0b565b60405180910390fd5b6004600083815260200190815260200160002060009054906101000a900473ffffffffffffffffffffffffffffffffffffffff169050919050565b6000610742826109ad565b90508073ffffffffffffffffffffffffffffffffffffffff168373ffffffffffffffffffffffffffffffffffffffff1614156107b3576040517f08c379a00000000000000000000000000000000000000000000000000000000081526004016107aa90612c6b565b60405180910390fd5b8073ffffffffffffffffffffffffffffffffffffffff166107d26114d5565b73ffffffffffffffffffffffffffffffffffffffff1614806108015750610800816107fb6114d5565b61136b565b5b610840576040517f08c379a000000000000000000000000000000000000000000000000000000000815260040161083790612b0b565b60405180910390fd5b61084a83836114dd565b505050565b600960205280600052604060002060009150905080600001549080600101805461087890612fdd565b80601f01602080910402602001604051908101604052809291908181526020018280546108a490612fdd565b80156108f15780601f106108c6576101008083540402835291602001916108f1565b820191906000526020600020905b8154815290600101906020018083116108d457829003601f168201915b5050505050908060020154908060030160009054906101000a900473ffffffffffffffffffffffffffffffffffffffff16905084565b60085481565b61093e6109386114d5565b82611596565b61097d576040517f08c379a000000000000000000000000000000000000000000000000000000000815260040161097490612cab565b60405180910390fd5b610988838383611674565b505050565b6109a883838360405180602001604052806000815250610c82565b505050565b6000806002600084815260200190815260200160002060009054906101000a900473ffffffffffffffffffffffffffffffffffffffff169050600073ffffffffffffffffffffffffffffffffffffffff168173ffffffffffffffffffffffffffffffffffffffff161415610a56576040517f08c379a0000000000000000000000000000000000000000000000000000000008152600401610a4d90612b4b565b60405180910390fd5b80915050919050565b60008073ffffffffffffffffffffffffffffffffffffffff168273ffffffffffffffffffffffffffffffffffffffff161415610ad0576040517f08c379a0000000000000000000000000000000000000000000000000000000008152600401610ac790612b2b565b60405180910390fd5b600360008373ffffffffffffffffffffffffffffffffffffffff1673ffffffffffffffffffffffffffffffffffffffff168152602001908152602001600020549050919050565b3373ffffffffffffffffffffffffffffffffffffffff16610b37826109ad565b73ffffffffffffffffffffffffffffffffffffffff1614610b8d576040517f08c379a0000000000000000000000000000000000000000000000000000000008152600401610b8490612beb565b60405180910390fd5b80600a60003373ffffffffffffffffffffffffffffffffffffffff1673ffffffffffffffffffffffffffffffffffffffff1681526020019081526020016000208190555050565b606060018054610be390612fdd565b80601f0160208091040260200160405190810160405280929190818152602001828054610c0f90612fdd565b8015610c5c5780601f10610c3157610100808354040283529160200191610c5c565b820191906000526020600020905b815481529060010190602001808311610c3f57829003601f168201915b5050505050905090565b60075481565b610c7e610c776114d5565b83836118db565b5050565b610c93610c8d6114d5565b83611596565b610cd2576040517f08c379a0000000000000000000000000000000000000000000000000000000008152600401610cc990612cab565b60405180910390fd5b610cde84848484611a48565b50505050565b600a6020528060005260406000206000915090505481565b6000610d0733610a5f565b11610d47576040517f08c379a0000000000000000000000000000000000000000000000000000000008152600401610d3e90612c8b565b60405180910390fd5b6000815111610d8b576040517f08c379a0000000000000000000000000000000000000000000000000000000008152600401610d8290612c2b565b60405180910390fd5b60086000815480929190610d9e90613040565b919050555060405180608001604052806008548152602001828152602001600081526020013373ffffffffffffffffffffffffffffffffffffffff16815250600960006008548152602001908152602001600020600082015181600001556020820151816001019080519060200190610e1892919061219a565b506040820151816002015560608201518160030160006101000a81548173ffffffffffffffffffffffffffffffffffffffff021916908373ffffffffffffffffffffffffffffffffffffffff1602179055509050507fc66336337a24e513f909b3b25119854dba8385d51307dbc7d31d1b2805e19c7e60085482600033604051610ea59493929190612ce6565b60405180910390a150565b6060610ebb82611469565b610efa576040517f08c379a0000000000000000000000000000000000000000000000000000000008152600401610ef190612bcb565b60405180910390fd5b6000600660008481526020019081526020016000208054610f1a90612fdd565b80601f0160208091040260200160405190810160405280929190818152602001828054610f4690612fdd565b8015610f935780601f10610f6857610100808354040283529160200191610f93565b820191906000526020600020905b815481529060010190602001808311610f7657829003601f168201915b505050505090506000610fa4611aa4565b9050600081511415610fba578192505050610ffd565b600082511115610fef578082604051602001610fd7929190612983565b60405160208183030381529060405292505050610ffd565b610ff884611abb565b925050505b919050565b60008111801561101457506008548111155b611053576040517f08c379a000000000000000000000000000000000000000000000000000000000815260040161104a90612b8b565b60405180910390fd5b6000600960008381526020019081526020016000206040518060800160405290816000820154815260200160018201805461108d90612fdd565b80601f01602080910402602001604051908101604052809291908181526020018280546110b990612fdd565b80156111065780601f106110db57610100808354040283529160200191611106565b820191906000526020600020905b8154815290600101906020018083116110e957829003601f168201915b50505050508152602001600282015481526020016003820160009054906101000a900473ffffffffffffffffffffffffffffffffffffffff1673ffffffffffffffffffffffffffffffffffffffff1673ffffffffffffffffffffffffffffffffffffffff168152505090503373ffffffffffffffffffffffffffffffffffffffff16816060015173ffffffffffffffffffffffffffffffffffffffff1614156111e4576040517f08c379a00000000000000000000000000000000000000000000000000000000081526004016111db90612b8b565b60405180910390fd5b806060015173ffffffffffffffffffffffffffffffffffffffff166108fc349081150290604051600060405180830381858888f1935050505015801561122e573d6000803e3d6000fd5b5034816040018181516112419190612e48565b91508181525050806009600084815260200190815260200160002060008201518160000155602082015181600101908051906020019061128292919061219a565b506040820151816002015560608201518160030160006101000a81548173ffffffffffffffffffffffffffffffffffffffff021916908373ffffffffffffffffffffffffffffffffffffffff1602179055509050507f20988fe475351e75813672abada1dddb7ac67cbbeb81e61e1160b8329d8cdf1c828260200151836040015184606001516040516113189493929190612d32565b60405180910390a15050565b60006007600081548092919061133990613040565b919050555061134a33600754611b62565b61135660075483611b80565b611361600754610b17565b6007549050919050565b6000600560008473ffffffffffffffffffffffffffffffffffffffff1673ffffffffffffffffffffffffffffffffffffffff16815260200190815260200160002060008373ffffffffffffffffffffffffffffffffffffffff1673ffffffffffffffffffffffffffffffffffffffff16815260200190815260200160002060009054906101000a900460ff16905092915050565b60007f01ffc9a7000000000000000000000000000000000000000000000000000000007bffffffffffffffffffffffffffffffffffffffffffffffffffffffff1916827bffffffffffffffffffffffffffffffffffffffffffffffffffffffff1916149050919050565b60008073ffffffffffffffffffffffffffffffffffffffff166002600084815260200190815260200160002060009054906101000a900473ffffffffffffffffffffffffffffffffffffffff1673ffffffffffffffffffffffffffffffffffffffff1614159050919050565b600033905090565b816004600083815260200190815260200160002060006101000a81548173ffffffffffffffffffffffffffffffffffffffff021916908373ffffffffffffffffffffffffffffffffffffffff160217905550808273ffffffffffffffffffffffffffffffffffffffff16611550836109ad565b73ffffffffffffffffffffffffffffffffffffffff167f8c5be1e5ebec7d5bd14f71427d1e84f3dd0314c0f7b2291e5b200ac8c7c3b92560405160405180910390a45050565b60006115a182611469565b6115e0576040517f08c379a00000000000000000000000000000000000000000000000000000000081526004016115d790612aeb565b60405180910390fd5b60006115eb836109ad565b90508073ffffffffffffffffffffffffffffffffffffffff168473ffffffffffffffffffffffffffffffffffffffff16148061165a57508373ffffffffffffffffffffffffffffffffffffffff16611642846106b2565b73ffffffffffffffffffffffffffffffffffffffff16145b8061166b575061166a818561136b565b5b91505092915050565b8273ffffffffffffffffffffffffffffffffffffffff16611694826109ad565b73ffffffffffffffffffffffffffffffffffffffff16146116ea576040517f08c379a00000000000000000000000000000000000000000000000000000000081526004016116e190612a6b565b60405180910390fd5b600073ffffffffffffffffffffffffffffffffffffffff168273ffffffffffffffffffffffffffffffffffffffff16141561175a576040517f08c379a000000000000000000000000000000000000000000000000000000000815260040161175190612aab565b60405180910390fd5b611765838383611bf4565b6117706000826114dd565b6001600360008573ffffffffffffffffffffffffffffffffffffffff1673ffffffffffffffffffffffffffffffffffffffff16815260200190815260200160002060008282546117c09190612ecf565b925050819055506001600360008473ffffffffffffffffffffffffffffffffffffffff1673ffffffffffffffffffffffffffffffffffffffff16815260200190815260200160002060008282546118179190612e48565b92505081905550816002600083815260200190815260200160002060006101000a81548173ffffffffffffffffffffffffffffffffffffffff021916908373ffffffffffffffffffffffffffffffffffffffff160217905550808273ffffffffffffffffffffffffffffffffffffffff168473ffffffffffffffffffffffffffffffffffffffff167fddf252ad1be2c89b69c2b068fc378daa952ba7f163c4a11628f55a4df523b3ef60405160405180910390a46118d6838383611bf9565b505050565b8173ffffffffffffffffffffffffffffffffffffffff168373ffffffffffffffffffffffffffffffffffffffff16141561194a576040517f08c379a000000000000000000000000000000000000000000000000000000000815260040161194190612acb565b60405180910390fd5b80600560008573ffffffffffffffffffffffffffffffffffffffff1673ffffffffffffffffffffffffffffffffffffffff16815260200190815260200160002060008473ffffffffffffffffffffffffffffffffffffffff1673ffffffffffffffffffffffffffffffffffffffff16815260200190815260200160002060006101000a81548160ff0219169083151502179055508173ffffffffffffffffffffffffffffffffffffffff168373ffffffffffffffffffffffffffffffffffffffff167f17307eab39ab6107e8899845ad3d59bd9653f200f220920489ca2b5937696c3183604051611a3b9190612a0e565b60405180910390a3505050565b611a53848484611674565b611a5f84848484611bfe565b611a9e576040517f08c379a0000000000000000000000000000000000000000000000000000000008152600401611a9590612a4b565b60405180910390fd5b50505050565b606060405180602001604052806000815250905090565b6060611ac682611469565b611b05576040517f08c379a0000000000000000000000000000000000000000000000000000000008152600401611afc90612c4b565b60405180910390fd5b6000611b0f611aa4565b90506000815111611b2f5760405180602001604052806000815250611b5a565b80611b3984611d95565b604051602001611b4a929190612983565b6040516020818303038152906040525b915050919050565b611b7c828260405180602001604052806000815250611f42565b5050565b611b8982611469565b611bc8576040517f08c379a0000000000000000000000000000000000000000000000000000000008152600401611bbf90612b6b565b60405180910390fd5b80600660008481526020019081526020016000209080519060200190611bef92919061219a565b505050565b505050565b505050565b6000611c1f8473ffffffffffffffffffffffffffffffffffffffff16611f9d565b15611d88578373ffffffffffffffffffffffffffffffffffffffff1663150b7a02611c486114d5565b8786866040518563ffffffff1660e01b8152600401611c6a94939291906129c2565b602060405180830381600087803b158015611c8457600080fd5b505af1925050508015611cb557506040513d601f19601f82011682018060405250810190611cb29190612546565b60015b611d38573d8060008114611ce5576040519150601f19603f3d011682016040523d82523d6000602084013e611cea565b606091505b50600081511415611d30576040517f08c379a0000000000000000000000000000000000000000000000000000000008152600401611d2790612a4b565b60405180910390fd5b805181602001fd5b63150b7a0260e01b7bffffffffffffffffffffffffffffffffffffffffffffffffffffffff1916817bffffffffffffffffffffffffffffffffffffffffffffffffffffffff191614915050611d8d565b600190505b949350505050565b60606000821415611ddd576040518060400160405280600181526020017f30000000000000000000000000000000000000000000000000000000000000008152509050611f3d565b600082905060005b60008214611e0f578080611df890613040565b915050600a82611e089190612e9e565b9150611de5565b60008167ffffffffffffffff811115611e51577f4e487b7100000000000000000000000000000000000000000000000000000000600052604160045260246000fd5b6040519080825280601f01601f191660200182016040528015611e835781602001600182028036833780820191505090505b5090505b60008514611f3657600182611e9c9190612ecf565b9150600a85611eab9190613089565b6030611eb79190612e48565b60f81b818381518110611ef3577f4e487b7100000000000000000000000000000000000000000000000000000000600052603260045260246000fd5b60200101907effffffffffffffffffffffffffffffffffffffffffffffffffffffffffffff1916908160001a905350600a85611f2f9190612e9e565b9450611e87565b8093505050505b919050565b611f4c8383611fc0565b611f596000848484611bfe565b611f98576040517f08c379a0000000000000000000000000000000000000000000000000000000008152600401611f8f90612a4b565b60405180910390fd5b505050565b6000808273ffffffffffffffffffffffffffffffffffffffff163b119050919050565b600073ffffffffffffffffffffffffffffffffffffffff168273ffffffffffffffffffffffffffffffffffffffff161415612030576040517f08c379a000000000000000000000000000000000000000000000000000000000815260040161202790612bab565b60405180910390fd5b61203981611469565b15612079576040517f08c379a000000000000000000000000000000000000000000000000000000000815260040161207090612a8b565b60405180910390fd5b61208560008383611bf4565b6001600360008473ffffffffffffffffffffffffffffffffffffffff1673ffffffffffffffffffffffffffffffffffffffff16815260200190815260200160002060008282546120d59190612e48565b92505081905550816002600083815260200190815260200160002060006101000a81548173ffffffffffffffffffffffffffffffffffffffff021916908373ffffffffffffffffffffffffffffffffffffffff160217905550808273ffffffffffffffffffffffffffffffffffffffff16600073ffffffffffffffffffffffffffffffffffffffff167fddf252ad1be2c89b69c2b068fc378daa952ba7f163c4a11628f55a4df523b3ef60405160405180910390a461219660008383611bf9565b5050565b8280546121a690612fdd565b90600052602060002090601f0160209004810192826121c8576000855561220f565b82601f106121e157805160ff191683800117855561220f565b8280016001018555821561220f579182015b8281111561220e5782518255916020019190600101906121f3565b5b50905061221c9190612220565b5090565b5b80821115612239576000816000905550600101612221565b5090565b600061225061224b84612da3565b612d7e565b90508281526020810184848401111561226857600080fd5b612273848285612f9b565b509392505050565b600061228e61228984612dd4565b612d7e565b9050828152602081018484840111156122a657600080fd5b6122b1848285612f9b565b509392505050565b6000813590506122c8816136f5565b92915050565b6000813590506122dd8161370c565b92915050565b6000813590506122f281613723565b92915050565b60008151905061230781613723565b92915050565b600082601f83011261231e57600080fd5b813561232e84826020860161223d565b91505092915050565b600082601f83011261234857600080fd5b813561235884826020860161227b565b91505092915050565b6000813590506123708161373a565b92915050565b60006020828403121561238857600080fd5b6000612396848285016122b9565b91505092915050565b600080604083850312156123b257600080fd5b60006123c0858286016122b9565b92505060206123d1858286016122b9565b9150509250929050565b6000806000606084860312156123f057600080fd5b60006123fe868287016122b9565b935050602061240f868287016122b9565b925050604061242086828701612361565b9150509250925092565b6000806000806080858703121561244057600080fd5b600061244e878288016122b9565b945050602061245f878288016122b9565b935050604061247087828801612361565b925050606085013567ffffffffffffffff81111561248d57600080fd5b6124998782880161230d565b91505092959194509250565b600080604083850312156124b857600080fd5b60006124c6858286016122b9565b92505060206124d7858286016122ce565b9150509250929050565b600080604083850312156124f457600080fd5b6000612502858286016122b9565b925050602061251385828601612361565b9150509250929050565b60006020828403121561252f57600080fd5b600061253d848285016122e3565b91505092915050565b60006020828403121561255857600080fd5b6000612566848285016122f8565b91505092915050565b60006020828403121561258157600080fd5b600082013567ffffffffffffffff81111561259b57600080fd5b6125a784828501612337565b91505092915050565b6000602082840312156125c257600080fd5b60006125d084828501612361565b91505092915050565b6125e281612f15565b82525050565b6125f181612f03565b82525050565b61260081612f27565b82525050565b600061261182612e05565b61261b8185612e1b565b935061262b818560208601612faa565b61263481613176565b840191505092915050565b61264881612f89565b82525050565b600061265982612e10565b6126638185612e2c565b9350612673818560208601612faa565b61267c81613176565b840191505092915050565b600061269282612e10565b61269c8185612e3d565b93506126ac818560208601612faa565b80840191505092915050565b60006126c5603283612e2c565b91506126d082613187565b604082019050919050565b60006126e8602583612e2c565b91506126f3826131d6565b604082019050919050565b600061270b601c83612e2c565b915061271682613225565b602082019050919050565b600061272e602483612e2c565b91506127398261324e565b604082019050919050565b6000612751601983612e2c565b915061275c8261329d565b602082019050919050565b6000612774602c83612e2c565b915061277f826132c6565b604082019050919050565b6000612797603883612e2c565b91506127a282613315565b604082019050919050565b60006127ba602a83612e2c565b91506127c582613364565b604082019050919050565b60006127dd602983612e2c565b91506127e8826133b3565b604082019050919050565b6000612800602e83612e2c565b915061280b82613402565b604082019050919050565b6000612823600f83612e2c565b915061282e82613451565b602082019050919050565b6000612846602083612e2c565b91506128518261347a565b602082019050919050565b6000612869603183612e2c565b9150612874826134a3565b604082019050919050565b600061288c603283612e2c565b9150612897826134f2565b604082019050919050565b60006128af602c83612e2c565b91506128ba82613541565b604082019050919050565b60006128d2601983612e2c565b91506128dd82613590565b602082019050919050565b60006128f5602f83612e2c565b9150612900826135b9565b604082019050919050565b6000612918602183612e2c565b915061292382613608565b604082019050919050565b600061293b602683612e2c565b915061294682613657565b604082019050919050565b600061295e603183612e2c565b9150612969826136a6565b604082019050919050565b61297d81612f7f565b82525050565b600061298f8285612687565b915061299b8284612687565b91508190509392505050565b60006020820190506129bc60008301846125e8565b92915050565b60006080820190506129d760008301876125e8565b6129e460208301866125e8565b6129f16040830185612974565b8181036060830152612a038184612606565b905095945050505050565b6000602082019050612a2360008301846125f7565b92915050565b60006020820190508181036000830152612a43818461264e565b905092915050565b60006020820190508181036000830152612a64816126b8565b9050919050565b60006020820190508181036000830152612a84816126db565b9050919050565b60006020820190508181036000830152612aa4816126fe565b9050919050565b60006020820190508181036000830152612ac481612721565b9050919050565b60006020820190508181036000830152612ae481612744565b9050919050565b60006020820190508181036000830152612b0481612767565b9050919050565b60006020820190508181036000830152612b248161278a565b9050919050565b60006020820190508181036000830152612b44816127ad565b9050919050565b60006020820190508181036000830152612b64816127d0565b9050919050565b60006020820190508181036000830152612b84816127f3565b9050919050565b60006020820190508181036000830152612ba481612816565b9050919050565b60006020820190508181036000830152612bc481612839565b9050919050565b60006020820190508181036000830152612be48161285c565b9050919050565b60006020820190508181036000830152612c048161287f565b9050919050565b60006020820190508181036000830152612c24816128a2565b9050919050565b60006020820190508181036000830152612c44816128c5565b9050919050565b60006020820190508181036000830152612c64816128e8565b9050919050565b60006020820190508181036000830152612c848161290b565b9050919050565b60006020820190508181036000830152612ca48161292e565b9050919050565b60006020820190508181036000830152612cc481612951565b9050919050565b6000602082019050612ce06000830184612974565b92915050565b6000608082019050612cfb6000830187612974565b8181036020830152612d0d818661264e565b9050612d1c604083018561263f565b612d2960608301846125d9565b95945050505050565b6000608082019050612d476000830187612974565b8181036020830152612d59818661264e565b9050612d686040830185612974565b612d7560608301846125d9565b95945050505050565b6000612d88612d99565b9050612d94828261300f565b919050565b6000604051905090565b600067ffffffffffffffff821115612dbe57612dbd613147565b5b612dc782613176565b9050602081019050919050565b600067ffffffffffffffff821115612def57612dee613147565b5b612df882613176565b9050602081019050919050565b600081519050919050565b600081519050919050565b600082825260208201905092915050565b600082825260208201905092915050565b600081905092915050565b6000612e5382612f7f565b9150612e5e83612f7f565b9250827fffffffffffffffffffffffffffffffffffffffffffffffffffffffffffffffff03821115612e9357612e926130ba565b5b828201905092915050565b6000612ea982612f7f565b9150612eb483612f7f565b925082612ec457612ec36130e9565b5b828204905092915050565b6000612eda82612f7f565b9150612ee583612f7f565b925082821015612ef857612ef76130ba565b5b828203905092915050565b6000612f0e82612f5f565b9050919050565b6000612f2082612f5f565b9050919050565b60008115159050919050565b60007fffffffff0000000000000000000000000000000000000000000000000000000082169050919050565b600073ffffffffffffffffffffffffffffffffffffffff82169050919050565b6000819050919050565b6000612f9482612f7f565b9050919050565b82818337600083830152505050565b60005b83811015612fc8578082015181840152602081019050612fad565b83811115612fd7576000848401525b50505050565b60006002820490506001821680612ff557607f821691505b6020821081141561300957613008613118565b5b50919050565b61301882613176565b810181811067ffffffffffffffff8211171561303757613036613147565b5b80604052505050565b600061304b82612f7f565b91507fffffffffffffffffffffffffffffffffffffffffffffffffffffffffffffffff82141561307e5761307d6130ba565b5b600182019050919050565b600061309482612f7f565b915061309f83612f7f565b9250826130af576130ae6130e9565b5b828206905092915050565b7f4e487b7100000000000000000000000000000000000000000000000000000000600052601160045260246000fd5b7f4e487b7100000000000000000000000000000000000000000000000000000000600052601260045260246000fd5b7f4e487b7100000000000000000000000000000000000000000000000000000000600052602260045260246000fd5b7f4e487b7100000000000000000000000000000000000000000000000000000000600052604160045260246000fd5b6000601f19601f8301169050919050565b7f4552433732313a207472616e7366657220746f206e6f6e20455243373231526560008201527f63656976657220696d706c656d656e7465720000000000000000000000000000602082015250565b7f4552433732313a207472616e736665722066726f6d20696e636f72726563742060008201527f6f776e6572000000000000000000000000000000000000000000000000000000602082015250565b7f4552433732313a20746f6b656e20616c7265616479206d696e74656400000000600082015250565b7f4552433732313a207472616e7366657220746f20746865207a65726f2061646460008201527f7265737300000000000000000000000000000000000000000000000000000000602082015250565b7f4552433732313a20617070726f766520746f2063616c6c657200000000000000600082015250565b7f4552433732313a206f70657261746f7220717565727920666f72206e6f6e657860008201527f697374656e7420746f6b656e0000000000000000000000000000000000000000602082015250565b7f4552433732313a20617070726f76652063616c6c6572206973206e6f74206f7760008201527f6e6572206e6f7220617070726f76656420666f7220616c6c0000000000000000602082015250565b7f4552433732313a2062616c616e636520717565727920666f7220746865207a6560008201527f726f206164647265737300000000000000000000000000000000000000000000602082015250565b7f4552433732313a206f776e657220717565727920666f72206e6f6e657869737460008201527f656e7420746f6b656e0000000000000000000000000000000000000000000000602082015250565b7f45524337323155524953746f726167653a2055524920736574206f66206e6f6e60008201527f6578697374656e7420746f6b656e000000000000000000000000000000000000602082015250565b7f496e76616c696420706f73742069640000000000000000000000000000000000600082015250565b7f4552433732313a206d696e7420746f20746865207a65726f2061646472657373600082015250565b7f45524337323155524953746f726167653a2055524920717565727920666f722060008201527f6e6f6e6578697374656e7420746f6b656e000000000000000000000000000000602082015250565b7f4d757374206f776e20746865204e465420796f752077616e7420746f2073656c60008201527f65637420617320796f752070726f66696c650000000000000000000000000000602082015250565b7f4552433732313a20617070726f76656420717565727920666f72206e6f6e657860008201527f697374656e7420746f6b656e0000000000000000000000000000000000000000602082015250565b7f43616e6e6f74207061737320616e20656d707479206861736800000000000000600082015250565b7f4552433732314d657461646174613a2055524920717565727920666f72206e6f60008201527f6e6578697374656e7420746f6b656e0000000000000000000000000000000000602082015250565b7f4552433732313a20617070726f76616c20746f2063757272656e74206f776e6560008201527f7200000000000000000000000000000000000000000000000000000000000000602082015250565b7f4d757374206f776e206120646563656e74726174776974746572206e6674207460008201527f6f20706f73740000000000000000000000000000000000000000000000000000602082015250565b7f4552433732313a207472616e736665722063616c6c6572206973206e6f74206f60008201527f776e6572206e6f7220617070726f766564000000000000000000000000000000602082015250565b6136fe81612f03565b811461370957600080fd5b50565b61371581612f27565b811461372057600080fd5b50565b61372c81612f33565b811461373757600080fd5b50565b61374381612f7f565b811461374e57600080fd5b5056fea2646970667358221220b3c753b2048dcb20add07015b9f47f3d4d536ddc39ad1c5179851aada1f69df164736f6c63430008040033",
  "linkReferences": {},
  "deployedLinkReferences": {}
}